:020000040800F2
:1000000000A00020E1F3000849F4000849F40008CA
:1000100049F4000849F4000849F400080000000011
:1000200000000000000000000000000049F400088B
:1000300049F400080000000049F40008814100086C
:1000400049F4000849F4000849F4000849F400089C
:1000500049F4000849F4000849F4000849F400088C
:1000600049F400089141000849F4000849F40008E7
:1000700049F4000849F40008B57D000849F4000877
:1000800049F4000849F4000849F4000849F400085C
:1000900049F4000849F4000849F4000849F400084C
:1000A00091930008E593000881930008A37C000861
:1000B000D5930008C5930008B593000849F40008DB
:1000C00049F4000849F4000849F4000849F400081C
:1000D00049F40008AD7D0008A57D000849F400083A
:1000E0009541000849F4000849F4000849F4000863
:1000F000B193000849F40008A193000849F40008EE
:1001000000000000000000000000000049F40008AA
:1001100049F4000849F4000849F4000849F40008CB
:1001200049F4000849F4000849F4000849F40008BB
:1001300049F4000849F40008000000000000000035
:1001400049F4000849F4000849F4000800000000E0
:10015000000000000000000000000000000000009F
:10016000000000000000000049F4000849F4000805
:1001700049F400080000000000000000000000003A
:080180000000000049F4000832
:1001C0002DE9F04FB1B008F063FC18B908F0C6FD96
:1001D0000AF0DCF9BF4DC04C08F080FC2B7843F0EE
:1001E00001032B70BD4B4FF47002C3F8882000232D
:1001F000089309930A93236843F4803323602368A8
:1002000003F400330993089B01330893099B1BB93E
:10021000089BB3F5A04FF2D1236813F4003318BF45
:1002200001230993099B012B40F0798202230A9351
:10023000AB4B12221A606368636063686360636833
:1002400043F480636360636823F47C1363606368D2
:1002500043F4E8136360236843F0807323602368EA
:100260009901FCD5636823F003036360636843F07E
:1002700002036360636803F00C03082BFAD10A9B46
:10028000964F6B60974BFB60636A636ADFF89C82F2
:10029000DFF89CB2DFF89CA243F08073636263696D
:1002A00043F4FC0330AE636103238DF8723041F6F2
:1002B000FF7326F8503D4FF09040314606F08CFC1D
:1002C0004FF6FF7331468848ADF8703006F084FC75
:1002D0003146404606F080FC3146844806F07CFCFE
:1002E0003146834806F078FC3146824806F074FCBB
:1002F000304607F0C3F91C9B7F4AB3FBF2F37F4AF9
:10030000DFF834E213607E4B7E4A4FF0000CC3F8F6
:1003100000C0C3F804C07C4B5A60F02287F8232049
:100320000722C3F808C01A60DBF80830CAF80030AA
:10033000BEE80F0037460FC7BEE80F000FC79EE8A4
:100340000F0087E80F00636943F40023636163696A
:1003500043F400236361636943F4002363616369C9
:1003600043F4003363614FF0904310221A8520223A
:100370001A8540221A854FF40043C8F818304FF40C
:100380008043C8F818304FF40053C8F81830674657
:10039000CDF80CA0391DF0593144083706F01CFC8B
:1003A000302FF7D1039B594AD3F80090584BDFF810
:1003B0008C811A60574B04221A7000213A4640463D
:1003C00010F0A4FD0127002188F8001088F818100B
:1003D00088F8241088F80C70142217A810F096FDE5
:1003E00019F4802F08BF4C4BDFF8FC8008BF1F704A
:1003F0002B784A4FDFF8489143F004032B7006F046
:100400002BFD474B1F60636943F480236361E369FD
:1004100043F40013E361236B23F010032363236B86
:1004200043F010032363D8F8243023F00F03C8F8F7
:100430002430D8F8243043F00403C8F82430D8F826
:10044000243023F0F003C8F82430D8F8243043F0E7
:100450004003C8F8243002234FF0000A4FF48072A2
:100460008DF87430049331464FF0030340468DF805
:1004700075301C928DF876A08DF877A009F024FFD6
:100480004FF40072314640461C9209F01DFF3A6855
:10049000039B22F001023A603968224A0A403A601E
:1004A000214A3A613A6842F001023A60C7F808A06E
:1004B000C7F80CA0C7F808A0BA6842F40042BA60B6
:1004C0003A683A607A6822F0784222F400427A6010
:1004D0003A6837E0880700200010024000ED00E095
:1004E000002002400005FA0500040048000C004806
:1004F000001000480014004840420F00F81000208F
:100500009C1000203F19010010E000E0260C0020A4
:10051000181F0020380A0020640700200054004003
:10052000401A0020FFE0CF007A25E00000080048D4
:10053000900A0020EC0F0020601101083C0A002006
:10054000201E002042F001023A601F68102251462E
:10055000484610F0DBFC049B8DF851304FF6FF72DB
:100560004FF0030307F0020713928DF852A08DF8A5
:1005700053A08DF8503087B130A9012741F8747D20
:10058000404609F0A1FE0C2389F80030072389F8C2
:1005900001A089F8033089F802704FF4D87007F091
:1005A0005DF863695F4843F0805343F00203636181
:1005B00007F054F8636943F0005343F002036361AA
:1005C000594C204609F097FD304609F069FD4FF47B
:1005D0008072564B22924FF480621C932392544BAC
:1005E0001D93202200232046249231464FF40052CE
:1005F0001E932093219325922693ADF87C7009F0E9
:100600005CFD236843F0010323604A4CA36823F098
:100610004053A360A36843F08053A3600A2003F013
:1006200046FDA36823F08043A360A368A360A3688A
:1006300043F00043A360A368002BFCDBA3683E4AA1
:10064000DFF8F08023F04053A360A36843F0005329
:10065000A3609168394B0B4043F468339360E268C0
:10066000374B134043F40053E360236B013F23F007
:100670000F031F4327630122002409EB0403997829
:1006800041B1571CFFB2DB7819F80410404609F05D
:10069000BFFD3A460434102CEFD1264B9A6842F045
:1006A00001029A601A68D207FCD5DA6822F00202C9
:1006B000DA60DA6842F00202DA60DA6842F00102D7
:1006C000DA609A6842F004029A60BBF9E830002BC5
:1006D0003ED007EE903ADFED1B6ABBF9EA301A4ACA
:1006E000F8EEE77A07EE103A67EEA67ABBF9EC303F
:1006F000CDED1C7A07EE903AB8EEC77AF8EEE77ABD
:10070000002127EE267A67EEA67A117030460F494F
:100710008DED1D7ACDED1E7A09F096FE20E00123C5
:100720000A93ACE500360010580402404004005023
:10073000301E00200004005000070050E010FCFFB5
:1007400007C0FFFD35FA8E3C960000204C150020B6
:10075000BBF9EA20002ABCD1BBF9EC20002AB8D1B1
:10076000DFF85083BBF8F030DFF84CA3059300248A
:100770009BF8EF30C8F8004010222146C8F804402A
:10078000C8F80840BB4804932C729BF8F77010F02F
:10079000BDFBB94BA5F809402320CAF80040CAF8B0
:1007A0000440CAF808401C6003F081FC0BAA012138
:1007B000752007F023FED146F0B1B04BCAF80430E3
:1007C000AF4BCAF808300FAA4323012120468AF80C
:1007D000003007F013FE9DF83C3003F07E038DF8E7
:1007E0003C30002800F0EE80682B40F0EB800123C5
:1007F0006B721D238AF800306A7AA24B069300219F
:10080000042A197040F0F9879A4B9F4A9F4C1A604E
:100810009F4A5A609F4ADA602268079142F00100BD
:1008200020609A464FF0010940F2022040F2FD1E7E
:10083000049B0A2B28BF002309FA03F111EA000CDC
:1008400040F0E18711EA0E0F00F0DD87924B83F84C
:1008500000C0924BC8F8003042F00302904BC8F839
:100860000430226023689B0702D5D8F800309847EF
:10087000DAF800300598DFF8448298474FF0000915
:10088000CA4688F800A01FB1BB1E022B00F2DB8015
:100890003346012200210C208DF8709007F034FDC2
:1008A000002800F0D0809DF87030482B40F0CB80BD
:1008B0007C4B7D4A1A607D4A5A60062388F80030D6
:1008C000236843F0080323609BF8E4300BB1069AD9
:1008D00013709BF8E5300BB16F4A13709BF8E6304C
:1008E0000BB188F800309BF8F830042B00F2B2808E
:1008F000012404FA03F212F016085ED112F0090F77
:1009000000F0A6800A2003F0D2FB13AB2246A02100
:10091000772007F0F9FC00284FD022461E217720CF
:1009200007F0EEFD4FF42F60614F03F0B5FBC146B9
:100930003C46A8F1600133460222C9B277208DF807
:1009400070908DF8719007F0DFFC9DF870209DF895
:10095000713043EA022328F8073008F10208B8F1A1
:10096000100FE6D1FA89002302F00F0602F47F424D
:10097000FA8119460127481034F81000002818BFE2
:10098000002711F0010F1ABFC0B2434083EA1023C1
:10099000082013F4004F18BF83F4C05301384FEA06
:1009A0004303F6D101311029E5D13243E28127B961
:1009B000C3F303339E4200F031872B7A43F02003C8
:1009C0002B724CE09DF82C3003F07E03682B8DF8E1
:1009D0002C3033D1022306216B723246D9F8043011
:1009E000084698479DF875309DF873209B0052008B
:1009F00002F0020203F0040313439DF8712002F099
:100A000001021343DAB25BB1012A02D10023AB72B7
:100A1000F2E6022A01D10123F9E7022003F051FB9B
:100A2000D9F8043013AA01210C2098479DF84C30C6
:100A300013F00F03F1D0042BEDD1E7E7702B04BFC7
:100A400004236B72D8E6012F7FF63EAF002718E72C
:100A5000012BB2D00D4A136843F0040313606B6896
:100A6000012B02BF2B7A43F040032B722C7A3CB34C
:100A70002046D3E7AC110020381A0020FD8300087F
:100A800015850008F80400204D820008D4090020D4
:100A90008181000890C1793D58050020F582000849
:100AA000C581000868100020C969000805690008B0
:100AB000481A00204C050020281A00207010002041
:100AC0002B7843F002032B70A64D4FF480432B8507
:100AD0004FF40043AB611026013E15D0AB8A9BB2A8
:100AE00083F48043AB82AB8A9BB283F40043AB8236
:100AF000AB8A9BB283F40053AB82192003F0D7FA80
:100B0000192003F0D4FAE7E74FF40043AB614FF448
:100B10008043AB61944E4FF40053AB6132681007D1
:100B200005D5924B1B689847914B01221A70914B47
:100B3000DFED916A1B68914D1A7B914B1A80914BA6
:100B40001B8807EE103AB8EEC77A8F4BC6EE877A4D
:100B50001B22FF2128469FED8D7A67EE877AC3ED31
:100B6000007A10F0D3F900222A703268884B0121F4
:100B700012F0020F1970284604D069700321197011
:100B80000221A970510704D519784D1C1D70032549
:100B9000455412F00A0F40F05286039A1568AA06CF
:100BA00004D51A78511C1970072181549BF805202F
:100BB000082A01D00E2A04D11A78511C19700B2171
:100BC00081541A786F0702F101014FF00C06865428
:100BD000C9B248BF0232197042BF1A701022425483
:100BE0001A781226511CC9B286546E05197004D5A4
:100BF0009BF8B861002E40F03186A90504D51A781B
:100C0000511C197015218154EA0504D51A78511C1C
:100C100019701A238354982200215E485D4DDFF835
:100C2000A0A110F073F9012003F048F94C2758B344
:100C3000012C29DC07FB04F905EB090898F84A6048
:100C400016B10134E4B2F2E7037990F9000001969D
:100C50000AEB8303032200921B6B3246012103F04F
:100C6000CFF8834660B104FB07504C22314610F0A8
:100C70004DF901231C4445F809B088F84A30E4B224
:100C8000012003F0F9F8D2E7434B2A681A60434B7E
:100C9000434E444A1E60002313809370424ADFF89B
:100CA00024C113605360414ADFF81CE11468404AD4
:100CB0001660404AF0891370A6F59B76B6F8462177
:100CC000643204F17D0107B212B2A3F10805EDB25E
:100CD000022D394D94BF25F8132025F81370DCF848
:100CE000005005F516754EF823500133122BECD148
:100CF000324B03931D68304B15F4805F08BFB6F983
:100D00004A71DF80CD348C421DD00B788BB98A7844
:100D1000CB789A420DDA72B1013A02EB820202EB11
:100D2000820202F561734A78234F04329BB227F89E
:100D300012300431E7E7013303EB830303EB830352
:100D400003F56173EFE72B074DD596F83E21062A90
:100D500043D8DFE812F03B008E009100BB00D500C5
:100D6000EF00EF0000080048D409002068100020C0
:100D70008C100020041B00200AE81C41D909002027
:100D80008C05002098000020FC1400200000C842C0
:100D9000D8090020C4050020A410002070090020FC
:100DA000C60B0020B01A0020D41A00206C1A0020B4
:100DB000741A0020F3080020F00F0020EC0F002030
:100DC00060110108501B00208809002045F2F052F4
:100DD000754B1A8002F038FD28B9082009F0C6FBCF
:100DE000724B734A1A60039B1A68724B12F4804F5D
:100DF00004D0122119706D496F48086042F2010059
:100E0000024202F4005140F02F851A786B4C6C4D71
:100E1000DFF8FCA1DFF8F491043A5A7003F020F9EE
:100E2000684B18607379052B02BF674B4FF4C8728B
:100E30001A8004F06BFA654B4FF47A721A80002323
:100E400023602B602368002B40F0E880232703F009
:100E500007F908F019FA0A2003F029F9013FF6D141
:100E600008F0E6F9DAF800302360D9F800302B609A
:100E7000E8E742F6F822ABE74B4B42F6F8221A803D
:100E8000534A0A23000190FBF3F00023A0F5B06061
:100E900042F823000133122BFAD1444A4D49116024
:100EA000444A4020137003F009F8002895D001232C
:100EB000072790F90000484A8DE88800474B4021F9
:100EC00002F09EFF003018BF012085E7364B42F646
:100ED000F8221A80354B424A1A60364B10221A709B
:100EE000402002F0EBFF00283FF477AF01230025FC
:100EF00090F900003B4A8DE828004FF4E133DEE72B
:100F0000294B42F6F8221A80284B374A1A60294B9F
:100F100008221A70402002F0D1FF00283FF45DAF94
:100F20000123002490F90000304A8DE818004FF4A6
:100F3000E133C4E71C4B2E4D2E4C2F48DFF8D4C0B4
:100F4000DFF8D4E02D4F42F6F8211980194B0C211F
:100F50001970062A4FF000032B70237003701AD00B
:100F60001B238CF8003005238EF800103B704FF4E3
:100F7000E1340E4B224A1A60402002F09FFF002805
:100F80003FF42BAF0023012190F900001D4A8DE8AA
:100F90000A00234693E721238CF800308EF80010D6
:100FA0003A70194CE5E700BF5E06002010000020F3
:100FB000459500088C0A00201D950008E4110020CA
:100FC000E011002090050020EE1E00208009002086
:100FD000241D0020E994000845970008A086010020
:100FE000D5940008A1960008BD9400085996000801
:100FF000B21C0020951D0020941D0020971D00208C
:10100000E99300084995000890D00300301B0020A8
:10101000341B0020961D0020B11C00200023DFF8A7
:10102000A093CF4F23602B604FF00F084FF0050ABD
:1010300003F016F808F028F90A2003F038F8BAF19E
:10104000010AF5D108F0F4F82368D9F800202968DE
:101050001A443B6822600B44B8F101082B60E5D1CB
:101060000F2192FBF1F22260BE4A93FBF1F32B6059
:10107000137843F008031370BB4A137823F002037C
:101080001370039B1B6840F602021A420BD0B74B49
:10109000B74A1A60B74B03221A70B74BA3F8008007
:1010A000B64BA3F80080039AB368B54C1360B54AF9
:1010B000B54DDFF810A30123137022788DF872303C
:1010C000214662F07F024FF0020901F80C2B8DF8E7
:1010D00073906A69059342F480224FF480570DF1B2
:1010E000700B0491ADF8707059466A61504605F076
:1010F00073FDCAF81870282002F0D9FFCAF81870DA
:10110000484602F0D4FFAAF82870484602F0CFFF04
:10111000CAF81870484602F0CAFF002002F04CFBE3
:101120005A213A2002F02AFB052002F0C0FF48466F
:1011300002F042FB032002F03FFB042002F03CFBE4
:10114000052002F039FB062002F036FB059B18460D
:1011500002F0ADFF07F0E2F9642002F0A8FF8B4A2D
:101160008B4BDFF864E24FF080411160894A8A4975
:1011700011608A4A8A4911604FF496625A81894AFD
:10118000059B13709EE80F000DF12C0989E80F00F4
:101190000EF110030FCB0DF13C0A8AE80F000EF19F
:1011A00020030FCB0DF14C0C0EF1300E8CE80F002C
:1011B0009EE80F008BE80F0099E80F00049F87E876
:1011C0000F009AE80F0004F11C0E8EE80F009CE857
:1011D0000F0004F12C0E8EE80F009BE80F0004F1C5
:1011E0003C0E8EE80F004FF4967002F060FF002175
:1011F0004FF48C726C480FF089FEEB69DDF810A09B
:1012000043F00703EB61AB6943F4A523AB616B6962
:1012100043F4C0236B6104F1100104F1600E0F2749
:1012200010318E4540F0368173790E2B40F04B81A2
:1012300001238DF866305D4B1968B8F1040F00F09A
:101240004B8108F1010301EBC30212F9062C022ABB
:1012500040F040814FEAC8039A1C8A1800F03E8192
:101260000B449B88003318BF01238DF86130039B2A
:101270001A68C2F340038DF86230C2F380138DF810
:101280006430C2F340338DF85C30C2F3C0338DF864
:101290005F3012F4006307D096F83231A3F1020EEA
:1012A000DEF1000343EB0E038DF86030C2F3004320
:1012B0008DF86530C2F3C003B6F8D4708DF85E3097
:1012C000C2F38043ADF86A708DF86330D704B6F886
:1012D000E030ADF8683002F0010002F0080144BFD0
:1012E000B6F8DC20ADF86A20B3F5FA7FC4BF00235E
:1012F000ADF86A3096F8823184F84C300023A4F8B7
:101300004D309DF866308DF85D00002B14BF022231
:10131000002200B901B10132254B234E03EB8203B9
:10132000D3F890309F1E0633049337F8023F4FF6F0
:10133000FF72934240F0D4801E4BDFF890E01E4FC6
:1013400004221A700024E3190FCB04EB0E061034AC
:10135000402C86E80F00F6D1039B18481A6837E046
:10136000301B002071100020101F00201C1E0020C8
:10137000B80B0020A4050020A6050020A805002029
:101380008807002064070020001002400815002094
:10139000F00F002004150020ABAAAA3F0015002082
:1013A00026B4973E6E0A0020601B0020181F002004
:1013B00060110108FE10002000120108700A0020D0
:1013C000341B002000040048B0110108A4060020CE
:1013D000C84B1E68C84B02F480521C680023002AC8
:1013E00000F00882B4F9041020F8131001330C2B1C
:1013F000F5D1022401268DF872608DF873406B6977
:10140000BE4F4FF0100843F48023ADF8708059466A
:101410006B61384605F0E0FBA7F828808DF8726014
:101420008DF873406B694FF090484FF0800943F49A
:101430000033ADF8709059466B614FF0904005F065
:10144000CBFBC8F818908DF872608DF873406B690B
:10145000ADF8704043F480236B615946384605F07F
:10146000BBFB3C858DF872608DF873406B694FF45F
:10147000004743F40033ADF8707059466B61404645
:1014800005F0AAFBC8F818701E2002F010FE31B05B
:10149000BDE8F08F11F8063C11F8050C4FEAD30CAB
:1014A00003F0070251F8103C03EB8C039200D3F8D1
:1014B00020C0904007FA02F22CEA02021A621A6A6D
:1014C00010431862ACE603F0EF03082B3FF4B0AE14
:1014D0000023AEE69846B0E60023C6E61346C4E60F
:1014E0009DF862205FFA83F81B0A4AB104EB0812E8
:1014F00082481169814203D1928A012A00F06F81EA
:10150000022B00F06C81012B0AEB081040F03D81AA
:101510009DF85D30002B00F062814FEA0818784B8F
:10152000E06504EB08090022FF211A705A609A60F6
:10153000DA601A6483F8441083F8451083F8462073
:1015400083F8472099F8193084F850208DF87230CC
:10155000B9F81420D9F81000ADF8702002235946CC
:101560008DF8733005F038FB94F84C2099F816305C
:10157000D9F80C00012A0CBF03220022002B40F0F6
:101580009C80036A23F0010303628369016A23F0EC
:10159000F30343F0010321F00A0143EA021341F08F
:1015A000010183610162836923F00C038361836914
:1015B000836104EB08090021012206F079FBD9F8C8
:1015C0000C2013889BB243F00103138099F8173065
:1015D0008DF870300022012358468DF871308DF857
:1015E000722006928DF87330059302F011F899F885
:1015F0001710059B069A1B290BD1192158468DF807
:1016000070108DF871308DF872208DF8733001F004
:10161000FFFFA0443B4B2366D8F80C903A4B63661F
:101620000023A366484606F091FB062800F3D78006
:1016300098F8162035490A23434303EB920346F8F2
:1016400023100433043146F8231091080222D9F8FC
:101650000C308A4092B21A4303B203EB8303DB00DF
:10166000C9F80C2003F120023244EFF3128E50210E
:1016700081F31288103333440421D3F800C0BCF145
:10168000000F03D0C2F800C01A680432013903F118
:101690000403F2D111605FFA8EFE8EF311882823C5
:1016A00003FB0060036A002B40F0F280D9F80C3095
:1016B00023F001031B041B0CEEE0042B28D1036A6A
:1016C00023F010031B041B0C03628369016A21F0E1
:1016D000A00123F47343090443F48073090C43EA23
:1016E000023341F0100183610162836923F4406396
:1016F0005CE700BFE81A0020E41A0020000400485C
:1017000014130020E5670008BD680008E807002002
:10171000082B036A1ED123F480731B041B0C036285
:10172000C369016A9BB223F0F30343F001034FF254
:10173000FF5E43EA021301EA0E0EC3614EF48073AA
:101740000362C36923F00C031B041B0CC361C36950
:10175000C3612EE723F480531B041B0C0362C3698F
:10176000016A23F440731B0521F400511B0D490449
:1017700043F48073490C43EA023341F48051C3615E
:101780000162C36923F44063DEE7032B27D19DF890
:10179000633094F84E90DFF844814BB100234FF64C
:1017A000FF72082105F042FA3D4B48F8290010E08D
:1017B000BDF86820BDF86A30B2F5FA7F14DD39490A
:1017C000B1FBF2F2242192B205F030FA364B48F820
:1017D0002900C36094F84E30013384F84E30049BE6
:1017E000BB427FF4A2ADA7E53049B1FBF2F2012183
:1017F00092B2D7E7B6F90410F6E52B7A43F002036C
:101800002B72FFF770B80021012B04913FF610A84E
:10181000274B9DF81C201A70FFF724B8254B42F285
:1018200010721A805A80244A5A60244A9A60244AC4
:10183000DA60244A1A61244A5A61FFF70BB91A7810
:1018400004218154511CC9B205254554D11C0232D2
:10185000D2B2197006218154FFF79FB902321A7073
:1018600013224254FFF7C9B9184844F62064048093
:1018700021B108211970164916480860D2077FF572
:10188000C4AA0C221A70124A13491160FFF7BDBA9C
:10189000D9F80C3043F00103C9F80C309FE700BFC2
:1018A000CD68000800512502E168000840420F00A1
:1018B00058050020381B0020138A0008478A0008BA
:1018C000098A0008458A0008698800085E06002029
:1018D00010000020399500082D950008781300208D
:1018E000A9490A682DE9F04F02F59C43A74C203323
:1018F0002360A74B8BB01D780591002D3AD1A54FE1
:10190000DFF8A082DFF8CCA297F80090E9B2494551
:101910000E4680F2A4800729D8BFD8F80030384698
:10192000D8BF595CDAF800309847032E1DDCD8F890
:10193000003006F10F0B03EB8B0133F82B204B88A3
:1019400098B1811A4FF47A709B1A484390FBF3F0D8
:1019500040F2EE2300F57A709842B8BF184640F680
:10196000CA039842A8BF184680B204EB4606013568
:10197000B080C9E7884909688A4201D9013D1D70D4
:10198000864B00931A6812F4805F05D0844B1B6865
:10199000DD0701D409F0A4FB059B1968814B1A6887
:1019A000937A002B00F03481013B7F48127B30F9A1
:1019B00013301AB1C3F53B6308331BB2A3F57A7336
:1019C000B3F57A7FA8BF4FF47A7323EAE37307EE87
:1019D000903ADFED766AF8EEE77A87EEA67A744AF7
:1019E000DFED747A67EE277AFCEEE77A17EE903A2D
:1019F0001380009BDFF8E0911B6813F4807F00F0F8
:101A000054816D4B6D4D994203D9AB78002B00F09A
:101A10004F87AB78002B00F04881614F95F821602B
:101A20003B6899F800B00297012E03F08063DFF85D
:101A300094A1634F01930BF0040B14BF4FF0030804
:101A40004FF0000895F82010052900F22881DFE802
:101A500011F01B0193019901BC01D401F1014F4B1D
:101A60001A68584B029342F20101186800900A402C
:101A7000039206D094F8293084F82830524B5A78D3
:101A80001A7094F828601EB14F4B1E7886F001063C
:101A90000F2384F82A30434B94F82BA01B68019342
:101AA0000323BAFBF3F303EB4303AAEB0303DBB219
:101AB0005B000493009B454FDFF8ECB003F5167311
:101AC000002507F1BC02069307F172084D4542DA82
:101AD000690086B137F91500019B9B8A80B2984254
:101AE000C0F2CE86019BDB8A984200F3C986069B32
:101AF00042F8253003E03046EEE73BF80100039B57
:101B00001BB92BF815000135E0E7314B062101FB2D
:101B1000053E049B2EF8030094F8743033B9BAF1F3
:101B2000020FEEDD4FF0010384F874304FF0000136
:101B300028F815106B0000203EF8101033F808C08C
:101B400001306144032823F80810F5D10BB293FB50
:101B5000F0F080B2D5E794F82A300F2B174B3DD127
:101B60000F4A1268560139D4029AD96812689A60ED
:101B7000521AC82A02D9012283F8212094F82B3066
:101B8000013384F82B30FBE654100020C8080020F5
:101B9000041F00208C0A0020001F0020EC0F0020F2
:101BA00030150020741A0020F00F002000007A4445
:101BB000300A002000C07F44404B4C00B01A002087
:101BC000AC1A0020501B00200B000020CC08002085
:101BD000F408002010000020101F0020B84AB94E61
:101BE000012151701170029A99681268DA60521AD4
:101BF00059688A4284BF002283F8212000254D4580
:101C0000BCDAE8B207F0BCFF26F815000135F6E7AC
:101C10000098006800047FF5ECAED4F89000081A34
:101C20000028FFF6E6AE01F59C402030C4F8900095
:101C3000A548D27A4579A548A54E30F8150080B25E
:101C400090FBF2F094F89420013202F00F0284F835
:101C50009420224482F8950018461A46855D01308A
:101C60002A44102812B2F9D192FBF0F212B2002AE3
:101C700003DB642A1346A8BF642307EE903ADFED26
:101C8000956AF8EEE77AA8E6BBF1000F68D0012E5E
:101C900005D0052008F042FC8F4B02221A70B8F1E3
:101CA000000F02D0404602F099F98C4DB5F8DE00E5
:101CB00001F070FEAA46064618B903F00FFB03F0C8
:101CC000FDFA99F800305B0708D5009B1B68DF061A
:101CD00004D5834B1B78DD0640F1F68500239AF886
:101CE0008C819AF88D11BAF84671BAF848E17548B6
:101CF0001A4630F912509B08BD42C4BF63F07F03FF
:101D0000DBB201327545B8BF43F04003042AF0D17D
:101D100094F8B1209A4240F0C18094F8B220F92A98
:101D200002DC013284F8B2206E4F84F8B1303B7887
:101D30006D4D002B40F0E9802B68D80740F1DC8026
:101D4000002E40F0AD8099F80030DA0740F1DD80D8
:101D50005B0702D4012384F8B33009F075F9D4E0AD
:101D6000019B4FF4806023B108F0F2FB00232B614C
:101D700095E708F0DDFBF9E7012E7FF463AE05215E
:101D800000F09EBD012E04BF052185F82010BBF197
:101D9000000F0CD0D4F8A810B1F90E004949088002
:101DA0004880888038684088C8804FF00208DAF898
:101DB000000069698142C0F07F85BBF1000F00F02F
:101DC0007B85012E3FF43EAE69E799F8001041F0A3
:101DD000020189F8001009F083F9DAF80000E969D6
:101DE0000144A961042185F820104FF4806008F0B7
:101DF0009FFB052008F086FB24E6012E14D1DAF8BB
:101E00000000A9698142BFF44AAF364B197821B965
:101E1000029B1968CA073FF542AF99F8001021F0FC
:101E2000020189F80010AAE7DAF80020EB691344F0
:101E3000AB6134E73868DAF80030C188642000FB11
:101E400001312961002185F82010E970CDE79AF869
:101E50008E317EB9002B00F03F85244B1A68D4F8F0
:101E6000AC309B1A002B80F2378509F039F984F8E1
:101E7000B06033E73BB11D4A12684FF47A7101FB41
:101E80000323C4F8AC3094F8B030002B3FF426AFF5
:101E900002F09AF8002384F8B0301FE7002241E7EF
:101EA000D4F8B4300A2B30DC114B1B885E072CD4DD
:101EB000104B1B784BBB03F011FA03F0FFF94CE712
:101EC0000B000020F00F0020201E0020301E0020FC
:101ED0005D0900200000C842161F0020900A002063
:101EE000711000201400002030150020501B00202D
:101EF000061F0020151F002099F80030580704D550
:101F000094F82830002B40F0ED8494F8B230994ECC
:101F1000142B2ED13B78C3B194F8B1305F2B06D18E
:101F200099F8003013F0040B6CD009F0D9F8B8F12F
:101F3000000F0AD094F8B1307D2B06D199F800300B
:101F400013F0040B64D009F0CBF899F8003013F0CB
:101F500004020ED194F8B130572B5FD14FF47A734D
:101F6000A4F8B830844B1B6813F0080301D1834AEE
:101F70001380009B1B68580725D594F8BA309BB195
:101F800099F8003059070FD57D4BB3F90620BAF800
:101F900046319A4208DD2B6813F0010301BF794AEC
:101FA00084F8BA30322111802B68DA0340F1A08026
:101FB000754B1A782AB9754A127812B9714A3221CA
:101FC000118001221A70366800232B6006F17F070A
:101FD00006F1CF084FF0010BB84500F098803A7831
:101FE0007B789A420CDA394617F8010C01F0C8FFE9
:101FF00030B117F8023C2A680BFA03F313432B6045
:102000000437E9E70B2001F0E9FF84F8B2B08EE76E
:102010000B2001F0E3FF84F8B2B096E7009909685D
:10202000490740F167845A2B40F06484574B197874
:1020300021B11A70564B01221A709AE794F8BA30FF
:1020400083F0010384F8BA301BB10C2001F0C6FF05
:102050008FE70D20FAE75B2B00F051845E2B40F0F8
:102060005C84032000F04CBCB8F1000F02D07E2B42
:1020700000F0608494F8B130972B04D1454B4FF4B5
:10208000C8721A8075E7A72B05D1434A137843F02D
:10209000040313706DE70022BB2B099217D10223B2
:1020A000ADF826303368BDF82410B3F85C200A443C
:1020B000A3F85C20BDF82610B3F85E200A44A3F80C
:1020C0005E2008F0FBFA002384F8B23051E7B72B0A
:1020D00002D14FF6FE73E3E7BE2B03D10223ADF826
:1020E0002430DFE7BD2B7FF444AF4FF6FE73F6E7F5
:1020F000264A1378002B3FF466AF99F8003013F0AE
:1021000004037FF460AF13700122214B5AE7234F81
:1021100006F1CD054FF00C0806F215164FF0010B35
:10212000B5423FD06A78AB789A4221DA691C2878A8
:1021300001F026FFE0B16979EB78194A95F804C0FF
:1021400008FB01FE013B07EB0E0003EB43031344C6
:10215000426893420CD043600023836094F8BB3004
:1021600007F80EC00BFA01F123EA010184F8BB1055
:102170000635D5E76C1A0020D4090020200A00207B
:10218000F00F0020CA1E0020EA1E0020EB1E0020D7
:10219000EC1E0020EE1E002071100020781A002096
:1021A0006E120108C84AC94994F82830D2F8008054
:1021B0000F68C74D019300260292042E00F0C082E2
:1021C0006968002962D00A78002A5FD0A868381AA6
:1021D00000280BDB07F5FA70A860012000FA06FE64
:1021E00094F8BB0020EA0E0084F8BB00019B002B92
:1021F0004CD028784B780430C0B2002B40F0698274
:10220000B44B33F910E0BAF8440100F1C80CE645CC
:1022100028DD91F802B094F8BB103141CB0735D4DA
:10222000BBF1000FCCBF02200120039201F0FCFEA5
:10223000039A511E13293BD8DFE811F02B0042000E
:102240004F0061007A008200E5005601BA01EB01FF
:102250001A023A0061006D008200E5005601DC00C0
:102260003C01B101C838864504DA91F802B0CBF1DF
:10227000000BD0E7012202FA06F194F8BB2022EA13
:10228000010284F8BB2007F5FA72AA6001360C350A
:1022900093E798F800209344BBF1FA0FA8BF4FF0E2
:1022A000FA0B2BEAEB7B88F800B0404601F04CFEBD
:1022B00094F8BB100122B2400A4384F8BB20E5E742
:1022C00098F801209344BBF1640FA8BF4FF0640B52
:1022D0002BEAEB7B88F801B0E7E798F803209344FA
:1022E000BBF1640FA8BF4FF0640B2BEAEB7B7A4A7B
:1022F00088F803B01168404601F0E6FDD8E798F889
:10230000051059446429A8BF642121EAE1710D2A0E
:1023100088F80510CCD098F804209344BBF1640FE2
:10232000A8BF4FF0640B2BEAEB7B88F804B0BFE743
:1023300098F8062093448BF3080B88F806B0B7E7AB
:1023400066490968087802283DD107EE90BAF8EE90
:10235000E76AB2EE047AC6EE877A91ED0A7A77EEF2
:10236000877AF5EEC07AF1EE10FA29D49FED5C7A07
:10237000F4EE477AF1EE10FAC8BFF0EE477A0F2A72
:10238000C1ED0A7A94D007EE90BAF8EEE76AB2EEA1
:10239000047AC6EE877A91ED097A77EE877AF5EEC0
:1023A000C07AF1EE10FA2BD49FED4D7AF4EE477A15
:1023B000F1EE10FAC8BFF0EE477AC1ED097A77E77F
:1023C000DFED487ADBE788785844C828A8BFC820E2
:1023D00020EAE0700F2A88703FF46AAF4A7893448D
:1023E000BBF1C80FA8BF4FF0C80B2BEAEB7B81F8FD
:1023F00001B05DE7394A11680A78022AC3D0EDE7D7
:10240000DFED387AD9E735490968087802283AD1EA
:1024100007EE90BA9FED327AF8EEE76AC6EE877A59
:10242000D1ED0D6A77EEA67AF5EEC07AF1EE10FAEC
:1024300026D4F4EE477AF1EE10FAC8BFF0EE477AF0
:10244000102AC1ED0D7A3FF433AF07EE90BA9FED3D
:10245000247AF8EEE76AC6EE877AD1ED0C6A77EE59
:10246000A67AF5EEC07AF1EE10FA29D4F4EE477AA6
:10247000F1EE10FAC8BFF0EE477AC1ED0C7A17E71B
:10248000DFED187ADCE7487B5844C828A8BFC8208D
:1024900020EAE070102A48733FF40AAF0A7B9344A5
:1024A000BBF1C80FA8BF4FF0C80B2BEAEB7B81F83C
:1024B0000CB0FDE6094A11680A78022AC5D0EDE79A
:1024C000DFED087AD9E700BF581A0020501B002022
:1024D000781A0020F00F0020E40F0020E80F002001
:1024E0000000C84200000000C049096808780228BE
:1024F0003ED107EE90BA9FEDBE7AF8EEE76AC6EEDF
:10250000877A91ED107A77EE877AF5EEC07AF1EE60
:1025100010FA2AD49FEDB77AF4EE477AF1EE10FA6A
:10252000C8BFF0EE477A112AC1ED107A3FF4C0AE71
:1025300007EE90BA9FEDAE7AF8EEE76AC6EE877ABC
:1025400091ED0F7A77EE877AF5EEC07AF1EE10FA18
:102550002BD49FEDA87AF4EE477AF1EE10FAC8BFBB
:10256000F0EE477AC1ED0F7AA2E6DFEDA37ADAE763
:10257000087E5844C828A8BFC82020EAE070112A65
:1025800008763FF495AECA7D9344BBF1C80FA8BF4F
:102590004FF0C80B2BEAEB7B81F817B088E6934A23
:1025A00011680A78022AC3D0EDE7DFED937AD9E704
:1025B0008E4A11680A78022A1FD107EE90BAF8EE07
:1025C000E76AB2EE047AC6EE877A91ED0B7A77EE7F
:1025D000877AF5EEC07AF1EE10FA0BD49FED857A8A
:1025E000F4EE477AF1EE10FAC8BFF0EE477AC1ED8B
:1025F0000B7A5DE6DFED807AF9E7CA789344BBF1A8
:10260000C80FA8BF4FF0C80B2BEAEB7B81F803B0D3
:102610004EE6764A11680A78022A1DD107EE90BA72
:102620009FED747AF8EEE76AC6EE877AD1ED0E6A0E
:1026300077EEA67AF5EEC07AF1EE10FA09D4F4EE50
:10264000477AF1EE10FAC8BFF0EE477AC1ED0E7A84
:102650002EE6DFED697AF9E78A7B9344BBF1C80F78
:10266000A8BF4FF0C80B2BEAEB7B81F80EB01FE63A
:102670005E4A11680A78022A1FD107EE90BA9FEDD0
:102680005C7AF8EEE76AC6EE877A91ED117A77EE1A
:10269000877AF5EEC07AF1EE10FA0BD49FED557AF9
:1026A000F4EE477AF1EE10FAC8BFF0EE477AC1EDCA
:1026B000117AFDE5DFED507AF9E74A7E9344BBF1EC
:1026C000C80FA8BF4FF0C80B2BEAEB7B81F819B0FD
:1026D000EEE5012B7FF4ECAD0C2A7FF4E9AD474B1E
:1026E000897833F910B0464B40F633008345A8BFD4
:1026F0008346BBF5617FB8BF4FF4617B4FF49660B2
:1027000090FBF1F01978ABF5617B9BFBF0FB5FFA76
:102710008BFB59453FF4CCADBBF1030FD4BF5946F9
:102720000221197002FB01A2029B02F22A521A60D6
:1027300006F08AF90BF10100C0B201F075FCB7E5B3
:10274000304D314E2B6813F0020F06D1009B1B68F1
:10275000DF0506D52D4BDB781BB13368980700F1F8
:10276000ED80012007F0E4FE012704E002F0B6FD51
:10277000012007F0EDFE2A68510732D58FB3012002
:1027800007F0D6FE224B1B889A0704D402F0A6FD60
:10279000022007F0DDFE99F800305B0708D41C4BDF
:1027A0001B8803F044031BB11A4B1A881A4B1A807A
:1027B000336813F00A0F40F0C9802B681A054FF4F4
:1027C00080705AD507F0C4FE9AF80530082B02D065
:1027D0000E2B40F0C38040200BB0BDE8F04F07F057
:1027E000A7BE022007F0A4FED5E700BFE80F002037
:1027F00000007A440000C84200000000F00F0020F2
:10280000701A002030150020D4090020B01A0020D2
:10281000081F0020200A0020121F0020514B1B8897
:102820005F0706D4042007F093FE4F4B1A884F4BE6
:102830001A802B689E061CD54A4B1B88580602D46A
:10284000402007F085FE2B68590641BF464A118893
:10285000474A118013F0080308D094F8BC30002BCD
:10286000ABD1414B1A88424B1A80012384F8BC300B
:10287000A3E7402007F05CFEE5E707F059FEA3E779
:1028800052F82530009883423FF637A9E8B2079204
:1028900007F076F9032D079A3FF731A994F82A102B
:1028A0000123AB4021EA030384F82A30FFF727B95C
:1028B0000123AB70FFF7ADB842F21071E96103215B
:1028C00085F82010FFF7BEB82A4B1B78002B7FF449
:1028D000BEAA002E7FF4D7AA102001F07FFB0123AF
:1028E000FFF7D9BA11B9002E7FF40FAB08F0F8FB4F
:1028F000FFF70BBB5D2B7FF4AEAB012000E00220A5
:10290000C7B27B1E8AF8283507F040FE06F0E6F8CD
:10291000384601F089FBFFF72CBB562B01D107F09D
:10292000CDFE3B78002B3FF4A5AB94F8B1306F2B74
:102930007FF49AAB08F088FBFFF71BBB094B1B88A1
:1029400013F001073FF412AF002714E72B68DB06F2
:102950003FF564AF042007F0EBFD6AE70BB0BDE87C
:10296000F08F00BF081F0020200A0020121F002047
:10297000500000201400002038B5044624200D46E5
:1029800001F012FA4D2001F00FFA002C094C14BF8F
:1029900021203E2001F008FA2368002228469A717F
:1029A00001F002FA236893F84900BDE8384001F0CD
:1029B000FBB900BF0C1F002001460020DCE710B56A
:1029C00001F0E8F9044601F0E5F904EB004010BD20
:1029D0002DE9F84F4B282DED048B00F0118500F206
:1029E000F080322800F050856BD8222800F0408417
:1029F0002BD8032800F0CE8207D8012800F0AD8242
:102A0000022800F0B7820020C0E2042800F0C9824A
:102A10000528F8D11A20FFF7CFFFC84D0024285D04
:102A2000013401F0C1F90B2CF9D1C54D0024285D0A
:102A3000013401F0B9F9082CF9D100240020013447
:102A400001F0B2F9072CF9D19FE2282800F0BF84E9
:102A500013D8242800F0B0842628D4D1B94C0620FD
:102A6000FFF7AAFFB4F8E80001F0B0F9B4F8EA0003
:102A700001F0ACF9B4F8EC004CE22A2800F0BA847A
:102A80002C28C0D1AF4C0C20FFF796FF94F83E01E4
:102A900001F08AF9B4F8480101F098F9B4F844015A
:102AA00001F094F9B4F8460101F090F994F83F016F
:102AB00001F07AF9B4F84A0101F088F9B4F84C0150
:102AC00028E23D2800F0178344D8382800F07A84A3
:102AD00033D8342800F0EF83362894D19A4D994C9E
:102AE00095F86400C0EBC000C0B2FFF765FF04F1C9
:102AF0002006683594F9980100230C33EA1812F97E
:102B00000C2C824240F0D584C0B201F04DF9B4F8EB
:102B10009A0101F05BF994F89C0101F045F994F8F1
:102B20009D0101F041F994F89F0101F03DF994F8FD
:102B30009E0101F039F900F0BFBC3A2800F0D282C2
:102B40003B287FF460AF0120FFF736FF7F4B1B6807
:102B500018780CE2452800F0C18426D8402800F0FF
:102B60009A8442287FF44FAF764C1020FFF724FF61
:102B7000607901F019F9A06801F031F994F83E018B
:102B800001F012F9B4F8E80001F020F9B4F8EA0015
:102B900001F01CF9B4F8EC0001F018F9B4F82E01BA
:102BA00001F014F9B4F83001B4E1462800F089844A
:102BB00049287FF428AF0220FFF7FEFE614B988979
:102BC000A8E1732800F0C38300F256816C2800F05E
:102BD000518200F2D180662800F0168200F29580C2
:102BE0004D2800F0318465287FF40DAF0B20FFF7EE
:102BF000E3FE574B544C188801F0E8F8554B1A681F
:102C0000554B9A420CBF554B554B188880B201F07A
:102C1000DDF82068C0F3C003C0F380029B0043EAE4
:102C20004203C0F340021343C0F3401243EAC2031D
:102C300000F01000184301F0C9F84A4B26791A88B1
:102C4000494B1968494B1B7802F00100C3F380031C
:102C500043EA4003C2F3400043EA800302F0080065
:102C60000343C2F3800043EA0013C2F3801043EA37
:102C7000401301F04000034301F08000034301F4DE
:102C800080700343C2F3001043EA4023C2F34010B4
:102C900043EA8023C2F3002043EAC02301F48050BA
:102CA000034301F40050034301F48040034301F463
:102CB0000040034301F48030034301F40030034338
:102CC00001F48020034301F40020034301F4801049
:102CD0000343C2F3402043EA405301F00071C2F3C2
:102CE00080220B43002043EA82630534024601251B
:102CF000B24280F06681115D05FA01F119421CBFF4
:102D000005FA02F108430132F2E7682800F0A681D3
:102D100069287FF478AE164D164E2878400000F0F2
:102D2000FE00FFF749FE00242B789C4280F02D81A5
:102D300036F8140001F04AF80134F5E7B01501083F
:102D4000BC150108900A0020D40900206C1A00204C
:102D5000061F0020401A002000540040241A0020C2
:102D6000261A0020081F002030150020101F002008
:102D70008C0A0020F00F00206F2800F0C78130D8A7
:102D80006D2800F086816E287FF43DAE0720FFF7A6
:102D900013FEC54BC54C1888FF28A8BFFF20C0B242
:102DA00001F002F8A06D4FF6FF75A842A8BF2846B3
:102DB00020EAE07080B201F009F8B4F85C0001F09C
:102DC00005F8BB4B93F83331002B00F09081236E54
:102DD0000A205843A842A8BF284620EAE07080B2E3
:102DE00098E0702800F0BA8172287FF40CAEB04CE5
:102DF0001620FFF7E1FDB4F8440100F0E7FFB4F856
:102E0000D00000F0E3FFB4F8D20000F0DFFFB4F828
:102E1000D40000F0DBFFB4F8860100F0D7FF0020FB
:102E200000F0C2FF002000F0BFFF002000F0BCFF58
:102E300094F8330100F0B8FF94F8400100F0B4FFBB
:102E4000002000F0B1FF9B4B1B68B3F95A000A2326
:102E500090FBF3F080B200F0B9FF94F8280100F085
:102E6000A3FF94F82C0100F09FFF94F82B0100F0D1
:102E70009BFF94F82D017AE0A02800F08D8222D8E3
:102E8000772800F049820FD8742846D075287FF43F
:102E9000BAAD2F20FFF790FD874C14F8010F0028E2
:102EA00073D000F081FFF8E77B2800F026837C28B0
:102EB0007FF4A9AD0320FFF77FFD804B187800F069
:102EC00085FF7F4B44E6F02800F059820AD8DD28C0
:102ED00000F01083DE287FF496ADFFF770FDFFF75A
:102EE0006EFD52E0FE2800F03D82FF287FF48BAD9E
:102EF000744A6E4C1188002323840122114266D14A
:102F000001339BB25200092B92B2F7D10220FFF796
:102F100053FD208C00F05AFF37E0644F00264FF03D
:102F2000010ADFF8BC914FF0000B3B795B4540F3A1
:102F3000E981654B0C251BF80340002305FB03F2D8
:102F400002EB090012F80920A24200F0DC820133F2
:102F50001C2BF3D10BF1010BE7E70320FFF72CFD4E
:102F6000002000F021FF022000F01EFF002000F0F2
:102F70001BFF0AE00520FFF71FFD544D0024285DCC
:102F8000013400F011FF052CF9D10120BDEC048BB8
:102F9000BDE8F88FFFF710FD022000F005FF0020CC
:102FA000E2E70B20FFF708FD072000F00FFF484D78
:102FB0000024285D013400F0F7FE072CF9D1002031
:102FC000A8E700F00CFF3A4B93F82805CFE7013B48
:102FD000072B05D8DFE803F007090B0E10121416B3
:102FE0000123238492E70223FBE74023F9E74FF410
:102FF0008073F6E78023F4E72023F2E71023F0E75D
:103000000823EEE70423ECE71220FFF7D5FC314B51
:10301000264C1B88B3F5806FD4BF012608260025F7
:1030200004F1220737F9150090FBF6F0013580B264
:1030300000F0CCFE032DF5D1208D00F0C7FE608D91
:1030400000F0C4FEA08D244C00F0C0FE208800F0EB
:10305000BDFE608800F0BAFEA0885BE71020FFF795
:10306000ABFC1E4D0024285D013400F09DFE102CA9
:10307000F9D18AE70D4C0620FFF79EFCB4F8460014
:1030800000F0A4FEB4F8480000F0A0FEB4F84C0034
:1030900040E7064C0620FFF78FFC206D00F09FFEF6
:1030A000B4F8540036E700BFC81E0020D409002041
:1030B000900A00206C1A0020A9120108161F002097
:1030C0009A000020061F0020D9090020A21501083F
:1030D000A81501089800002060100020020A0020B6
:1030E000481401080420FFF767FC002061E1206E0E
:1030F00000F30F0073E6CA4C0220FFF75DFC94F862
:103100008E0100F051FE94F88D0130E7C54C0B2084
:10311000FFF752FC2368187800F046FE23685878C1
:1031200000F042FE002523682B440135187900F099
:103130003BFE032DF7D12368D87900F035FE2368D4
:10314000987800F031FE2368D87800F02DFE2368CF
:10315000588900F03BFE2368187A08E7B24C21201A
:10316000FFF72AFC23681B78022B4FF000056CD177
:103170009FEDAE9ADFEDAE8AB2EE048A236803EBD0
:10318000850393ED090A20EE080A0CF0A7F980F3F5
:103190000800C0B200F008FE236803EB850393ED3E
:1031A0000C0A20EE090A0CF099F980F30800C0B26D
:1031B00000F0FAFD236803EB850393ED0F0A20EE80
:1031C000280A0CF08BF980F30800C0B2013500F03A
:1031D000EBFD032DD2D1072D236829D193ED120ADF
:1031E00020EE080A0CF07AF980F30800C0B200F073
:1031F000DBFD236893ED130A20EE080A0CF06EF94C
:1032000080F30800C0B200F0CFFD236893F850307F
:1032100000EE103AB8EE400A0CF060F9FF28A8BFA3
:10322000FF20C0B2013500F0BFFD0B2DD3D1ACE6BD
:103230002B44587800F0B8FD23682B44187B00F02D
:10324000B3FD23682B44D87DECE723682B445878E2
:1032500000F0AAFD23682B44187B00F0A5FD23682D
:103260002B440135D87D00F09FFD0B2DEDD18CE670
:103270005020FFF7A1FBDFF8B0816E4E00250C2730
:10328000D8F8004004EB8504013594F87D3007FB45
:103290000363187A00F088FD94F87E0000F084FD46
:1032A00094F87F0000F080FD94F8800000F07CFD31
:1032B000142DE5D169E64820FFF77EFB5A4F002523
:1032C00006263C6806FB0544013594F8D20000F060
:1032D0006BFD94F8CD0000F067FD94F8CE0000F08F
:1032E00063FD94F8CF0000F05FFD94F8D00000F08B
:1032F0005BFD94F8D10000F057FD0C2DE1D144E6C0
:10330000464427E6BAF1000F3FF43FAEF0B2FFF7B4
:1033100053FB4FF0000A04E6474C464D2079FFF777
:103320004BFB0026671D4FF00C0823799E42BFF42B
:103330002CAEF05D002308FB03F25119525D82426E
:1033400000F0F48001331C2BF5D10136EDE70820A5
:10335000FFF732FB0124E0B2013400F025FD092C17
:10336000F9D112E60820FFF727FB002000F02EFD20
:10337000002000F02BFD002000F028FD1FE62A4C65
:103380000420FFF719FB2368B3F85E0000F01EFD70
:103390002368B3F85C00BDE50C20FFF70DFB274B5D
:1033A000186800F01CFD264B186800F018FD254B2E
:1033B000186800F014FDE8E50420FFF7FDFA184B4B
:1033C0009868F6E70420FFF7F7FA154C45E5144C2A
:1033D0000720FFF7F1FAB4F82E0100F0F7FCB4F87B
:1033E000300100F0F3FC94F8320100F0DDFCB4F899
:1033F00034018FE50120FFF7DFFA094B5879B6E574
:10340000074C0420FFF7D8FA94F8840100F0CCFCB4
:1034100094F8850100F0C8FCB4F886017AE500BF95
:10342000900A0020581A00206C1A00200000C842A0
:1034300000007A4448140108D4090020ACF7FF1FAB
:10344000B0F7FF1FB4F7FF1F3A4D3B4C287800EB55
:103450004000C0B2FFF7B0FA00262B789E4204F17C
:103460000204BFF492AD14F8020C00F09DFC14F8B5
:10347000010C00EB800000EB800000F2EE2080B237
:1034800000F0A4FC0136E8E70120FFF795FA2B4B8A
:1034900093F840016BE50820FFF78EFA274D0024D2
:1034A0006319013493F8360100F07EFC082CF7D143
:1034B0006BE5302B7FF421AB0834A6427FF41AABC6
:1034C00063E50D20FFF778FA002000F06DFC002086
:1034D00000F085FC002000F082FC06E61320FFF7D8
:1034E0006BFA174D0024285D013400F05DFC0B2CB5
:1034F000F9D1EFE700F04EFC47E50220FFF75CFA58
:10350000104B188806E54568284607F019FF8046E5
:10351000BAF1000F7FF4F4AE2C46631B98457FF799
:1035200019AD14F8010B00F03FFCF6E7087A00F043
:103530003BFC0AE78C0A0020DE0B0020900A0020EA
:10354000B01501089C000020104A40F2E9331189AF
:1035500089070AD50E4A0D49107040F2E9330889EF
:10356000C0070DD51078C0B27047013B9BB2002B4D
:10357000EDD1084A138801339BB21380FF207047B6
:10358000013B9BB2002BEAD1F3E700BF00380040BB
:103590000C3800406C0A0020B1F5FA6FA8BF4FF458
:1035A000FA61B1F57A7FB8BF4FF47A7107281DD858
:1035B000DFE800F004090E13181D2227134B9A7838
:1035C000A2B199807047114B9A787AB1D98070472F
:1035D0000E4B9A7852B1198170470C4B9A782AB1E8
:1035E000598103E0094B9A78002AEAD07047074BCB
:1035F0009A78002AFAD1E9E7044B9A78002AF5D1A3
:10360000E9E7024B9A78002AEAD0EFE76C0A00203B
:103610000C4B10B5DB6802780B48DB43C3F3022385
:103620000121C3F1040301FA03F384181B01DBB287
:1036300084F80033530902F01F0201FA02F240F845
:10364000232010BD00ED00E000E100E0084B4FF446
:103650007A72594301F5FA714FF4FA63B1FBF3F34F
:10366000B1FBF2F102FB0030B0FBF1F0704700BF9C
:10367000002F3A00F0B54FF0FF33CF08136001F090
:1036800007014FEAC70E3D460026052D00D806B1BA
:10369000F0BD445DAF4203BF0C41E4B20B4633467C
:1036A00014F0010F06D073441360012601350EF1AA
:1036B000080EEAE70133082B4FEA5404F0D1F5E78E
:1036C0002DE9F04F87B00DF11808109D48F80C5DFA
:1036D000294F1C4681468A46934600260123119AAB
:1036E000964221D10026129B1D60CEB92146484644
:1036F00007F064FB064698B904AD2B460622B021BC
:1037000099F85C0104F000FE002808BF6FF0130672
:103710000023E15CEA5C91422AD10133062BF8D107
:10372000304607B0BDE8F08F42462946584601931F
:10373000FFF7A0FF039A531C17D002F1B4018909C7
:1037400057F82110003118BF012151450DD1D10882
:10375000019B02F0070005299FBF03FA00F5605C9A
:1037600028436054551C0136B9E76FF03106BAE7BB
:103770006FF03106D4E700BFDC120108F8B50D4C3C
:1037800020250746258532200E4600F085FC47F0AF
:103790008000FFF7D9FE322000F07EFC3046FFF7B4
:1037A000D3FE322000F078FCA561C82000F074FC44
:1037B0000120F8BD000400481F4B202210B51A85D7
:1037C0000446322000F068FC04F07F00FFF7BCFEE6
:1037D000322000F061FC194A4FF6FF7193894FF4D3
:1037E0007A73148914F002040CD0154A1348FF218F
:1037F00011704FF6FF71048914F0010416D014788B
:10380000E4B208E0013B9BB28B42EAD10D4A138837
:1038100001339BB21380322000F03EFC064B202285
:103820009A61C82000F038FC204610BD013B9BB2D5
:103830008B42E0D1EAE700BF0004004800380040B6
:103840000C3800406C0A002007B51B4B03F1200226
:10385000DA6193F862212AB3012A0AD1032183F89D
:103860007415072183F8762583F875150C2283F8E3
:103870002020124B124A1A60402000F01FFB70B14A
:103880000122002390F9000040218DE80C004FF444
:10389000E1330C4A00F0B4FA003018BF012003B045
:1038A0005DF804FB022183F87415032183F8762563
:1038B00083F875150722DAE76C0A00201000002053
:1038C00091940008119600080D4B03F1F402C3F81F
:1038D0007825C3F87C1500F15003984207D0027890
:1038E0001AB98178C278914207DB0430F5E70023EA
:1038F000044A83F00103137170470123F8E700BF06
:103900006C0A00201000002070B52222002112480D
:10391000124E0DF0FBFA0022114B05210124104636
:10392000042A03F108030CD0955D03F8085C03F842
:10393000041C03F8034C03F8010C03F8021C0132C9
:10394000EEE7084B0122A3F8BE210222A3F8C6210C
:10395000522283F8BA2170BD260C0020EC12010817
:10396000280C00206C0A002010B506F03DFC4FF436
:103970003024012806D10CB9052010BD06F034FC16
:10398000013CF6E7002C08BF052010BD00210120F6
:10399000FEF7F2BF0B4AD2F8803513F4805FB2F91C
:1039A0008A350AD0B2F86821111A8B4208DD10441A
:1039B0008342B4BF002001207047B2F86A01F7E7E4
:1039C000012070476C0A0020164B1946002241F86E
:1039D0000C2F4A608A6019461A6041F8182F5A6005
:1039E0009A604A608A601946303393ED000A41F8C4
:1039F000242FB4EE400AF1EE10FA4A608A6006D62F
:103A000093ED021AB4EE411AF1EE10FA07D79FEDCA
:103A1000061AF0EE410AB0EE410A02F007BDD3EDFE
:103A2000010AFAE718100020000000002DE9F0411B
:103A3000624CD4F8E835D4F8EC259A1A002AC0F282
:103A4000848003F5C332A032C4F8F03504F2F45098
:103A5000D4F80036C4F8EC25984704F2F45194F8F1
:103A60000426084603F082FF94F8052612F0040F9E
:103A700004F2F4501CD0D4F8EC35C4F80836002316
:103A800084F80C3604F592759E4604F20E6704F233
:103A9000146630F9131027F8131026F813100133A9
:103AA000032B25F802EFF4D122F0040284F8052656
:103AB000D4F80826DAB1D4F8EC3541499B1A414ACA
:103AC000934201F106064FF0000340D830F913206D
:103AD00031F913705D009742775FC8BF21F813205A
:103AE000974203F10103B8BF7253032BEED194F850
:103AF000203653B3B4F8F605B4F82821B4F8F835F5
:103B0000B4F82611801AB4F82E2112FB00F210B27C
:103B1000B4F82A219A1AB4F8303113FB02F3B4F83E
:103B2000F425511AB4F82C2112FB01F21BB20A2120
:103B300012B293FBF1F392FBF1F2A4F8F835A4F87A
:103B4000F42590FBF1F2A4F8F625BDE8F08101F12F
:103B50000C07C4F80836A1F2EA4C4FF002083846C8
:103B600031F913E036F913200EEB0205A2EB0E0239
:103B700002EB820227F8132095FBF8F50133032BA3
:103B80002CF8025FECD1B4F91C26B4F91A360E4EAB
:103B90001344B4F91E260A21134459430022B518D0
:103BA000835E0232062A03EB430391FBF3F3A5F88D
:103BB0000831F4D106F082FD99E700BF6C0A0020BD
:103BC0007A1000207FC3C901900A002013B5144663
:103BD00001AB042290F85C0104F096FB019B0028E5
:103BE0001BBA0CBF6FF013000020236002B010BDA1
:103BF00013B5144601AB022290F85C0104F084FB7B
:103C00009DF804209DF80530002843EA02230CBFEC
:103C10006FF013000020238002B010BD08B51346DA
:103C200090F85C01012204F06FFB00280CBF6FF0DC
:103C30001300002008BD2DE9F3474FF0000A884625
:103C40001646FF210122054699469DF828708DF8F9
:103C500007A006F010F8524604465146284606F0E2
:103C60000AF852460443FF21284606F004F864B2DD
:103C7000044364B2B9F1000F06D04246CB21284676
:103C8000FFF7CCFF044364B23FB10DF10702EE2110
:103C90002846FFF7C3FF044364B20122FF212846F0
:103CA00005F0E9FF012204430021284605F0E3FF67
:103CB00064B204430022FF21284605F0DCFF64B211
:103CC0009DF80730204323F0100340B2337002B058
:103CD000BDE8F08773B50646002501220B2130466A
:103CE00005F0C9FF002204460B21304605F0C3FF52
:103CF0000DF10702044313213046FFF78FFF9DF8B3
:103D0000073064B2204301355B0740B2EDB205D005
:103D1000032D08D00028E0D002B070BD032D08BFED
:103D20006FF00B00F8E76FF00B00F5E7F7B590F8D0
:103D30005C6115461C4601220DF1070330460F4613
:103D400004F0E2FA68B19DF807202A402243394680
:103D500030468DF8072004F0D3FB10B1002003B0EB
:103D6000F0BD6FF01300FAE7044A536823B192F9EB
:103D70000020824200D11847704700BF9C100020ED
:103D8000034B1B68DA79511CD9711344187A7047B8
:103D90000C1F002010B5FFF7F3FF84B2FFF7F0FF10
:103DA00004EB002080B210BD064B10B5014604465E
:103DB000986806F0D3FA044B1B689A7954409C71BA
:103DC00010BD00BF9C1000200C1F002010B5044641
:103DD000C0B2FFF7E9FF200ABDE81040E4E710B5E4
:103DE000044680B2FFF7F2FF200CBDE81040EDE77B
:103DF000024B0146986806F0B1BA00BF9C10002043
:103E00002DE9F34188469DF824E0184E11461A46E4
:103E10009DF8203005460C240020042807460AD0CF
:103E2000013004FB006C1CF90CCCAC45F5D104FB53
:103E30000764208908B1002002E025B1012D11D0CE
:103E400002B0BDE8F0810A48CDF800E003F0D0FFF1
:103E50000028F5D00C2303FB07660571A6F808803F
:103E60007060EDE7CDF800E00248EFE73C0A002083
:103E7000003801400044004070B50E490E4A0B7BEB
:103E800012680025032B05DD05B10B73002070BD02
:103E90002346F7E702EBC3065C1CB6883042E4B267
:103EA0004FF00105F4D00C730820022110FB031021
:103EB000104470BD9C100020181F0020014B0022F0
:103EC0001A73D9E79C1000202DE9F0411D4D002404
:103ED0000A274FF47A7682781FFA82FEA4EB0E034B
:103EE0001BB2002B2ADDC2F16402D2B290F803802B
:103EF00003FB03FC08FB0CFCC8F164080EEB8E0E00
:103F000012FB02F29CFBF2F24244534393FBF7F3A1
:103F100003EB4E031BB26B800A88B1F802E00A344F
:103F2000AEEB020EA4B203FB0EF3782C93FBF6F378
:103F3000134425F8023FCED1BDE8F08108BF01222D
:103F4000D4E700BFA810002030B50C4C002340F689
:103F5000C415072B10D003FB03F2A2F1190142781C
:103F60004A4302F6C41201785A434A4392FBF5F2DF
:103F700024F813200133ECE730BD00BFC21000204D
:103F80000430104B10B533F910200C7840F6330391
:103F90009A42A8BF1A46B2F5617F4FF0190340F26A
:103FA0008330B8BF4FF4617213FB0404944207DA04
:103FB000497813FB01009042B4BF0020012010BDDE
:103FC000002010BDF00F0020034B002283F83420A6
:103FD0009A639A871A6470479C10002070B408B9DD
:103FE00070BCF1E70E4A00230C25114605FB03F4D3
:103FF000A65C864209D10B4B186C50B1224455780F
:104000004278954205DB70BC70470133102BEDD12F
:10401000F9E70022214419649A879A63F3E700BF05
:10402000F01201089C10002040000C4A142870B4C3
:10403000A8BF1420002302F14401022614255E5477
:104040000233CC18984204F8015CF8DC1344FF22D8
:1040500083F844200F2070BCC0E700BF9C100020F4
:1040600010B50A490A480A68846800BF0B689A427A
:10407000F9D1084BD96D4FF47A7000FB01F31B1B8B
:10408000B3FBF1F300FB023010BD00BF501B00205A
:1040900010E000E09C10002038B50446FFF7E0FF78
:1040A0000546FFF7DDFF401BA042FAD338BD10B52F
:1040B000044604B910BD4FF47A70FFF7EDFF013CE0
:1040C000F7E72DE987482D4C06460B27013FFCD02A
:1040D0004FF01E0B05254FF0020806F0400906F0D0
:1040E000200A00E00025B9F1000F04D0A38A9BB29A
:1040F00083F48043A382BAF1000F04D0A38A9BB259
:1041000083F40043A38216F002021FBFA38A9BB26E
:1041100083F40053A38258460192FFF7C8FF019A27
:10412000B9F1000F04D0A38A9BB283F48043A38229
:10413000BAF1000F04D0A38A9BB283F40043A38298
:1041400022B1A38A9BB283F40053A3825846FFF79F
:10415000AEFF7DB1013DC6D14FF4FA70FFF7A7FF66
:104160004FF0960BB8F1000FBCD14FF47A70FFF707
:104170009EFFABE708F1FF38F4E700BF00080048F6
:10418000024A136801331360704700BF501B0020C0
:104190000920E9E52820E7E506EE901AB8EEE66A80
:1041A000DFED106A104B9FED117AB3F8603026EE08
:1041B000266AF7EE005AC5EE866A07EE903AF8EEE8
:1041C000677A67EE877A90ED007A76EEA76A30EE2E
:1041D000470A87EEA66AA6EE007AB0EE470A80ED9F
:1041E000007A7047DB0FC9409C100020BD37863530
:1041F0002DE9F74F244D254E254F002495F8628078
:10420000E0B240450ADA56F820302BB10B2803DC27
:10421000DB6837F8101098470134EFE71D4B1B6837
:104220005B032DD50025194FDFF86CB029464FF000
:10423000500A4FF028092A46EEB2B04520DD57F863
:1042400026305C688C4214D02046019203F07EFD3B
:10425000EFF312838AF31288616A09FB00B001311F
:104260004162616941F001016161DBB283F3118850
:10427000019A57F826301B6801351A602146DBE7A2
:1042800003B0BDE8F08F00BF9C1000207813002021
:10429000020A0020EC0F0020601B00202DE9F04FE7
:1042A000F34BF44CD3F80090D4F868A0F24DDFF84B
:1042B0000C84F24FF24E2DED0A8BD14583B0B0EE57
:1042C00040BADFEDF08ADFEDF09A9FEDF09A9FEDB6
:1042D000F0AA00F01483EF4BC4F868901A780193A9
:1042E000DFF8DCB3002A4ED1BBF90230D5ED085A15
:1042F000D5ED060A07EE903ABBF9043000EE103A0D
:10430000B8EEC07AF8EEE77A95ED070ABBF900300F
:1043100065EE876AB7EE006AE7EE806A20EE470A2C
:10432000A0EEE06AA7EEA50A60EEE60A06EE903A75
:10433000F8EEE66AB1EE400AE6EE260A0BF01CFA49
:10434000DFEDD57AB4EEE70AF1EE10FAB0EE401ADE
:1043500000F1B182DFEDD17AB4EE670AF1EE10FA26
:10436000C8BFB0EE671ACE4AD2ED010A92ED000A3C
:1043700002F05CF8019BC8ED008A0122C8ED018AB9
:10438000C8ED028A1A70BBF90030D5ED01AAD5ED4F
:10439000006A07EE103ABBF9023008EE103AB8EEA8
:1043A000C88AB8EEC77ABBF9043068EE2AAA07EECD
:1043B000903AE7EE26AAF8EEE77AD5ED026AE7EE44
:1043C000A6AAD5ED046AC4ED1BAA28EE268AD5ED6F
:1043D000036AA7EE268A95ED057AA7EE878A28EE6E
:1043E00008CA84ED1C8AB0EE4C0AAAEEAA0A0BF0A9
:1043F00041FACAEE80BAB0EE4C0AABEEAB0A0BF053
:1044000039FADFEDA87AB0EEEB7AB4EE677AF1EE26
:1044100010FA09DCC8EE00AAB0EEEA7AB4EE677AC8
:10442000F1EE10FA40F36882DFED96AA97ED010AEB
:1044300097ED007AD7ED027AD5ED08BA20EE000AA2
:10444000A7EE070AA7EEA70A0BF014FAD5ED097A32
:10445000F4EEE97AF1EE10FAB4EEC90A48BFC5ED00
:10446000099AF1EE10FAB0EE40CA00F12782DFEDB2
:10447000957AB4EEE70AF1EE10FA00F32282C0EE6C
:10448000097A6BEEAABA95ED098A94ED1E0A6BEED5
:10449000A77A20EE000A27EE888AD4ED1D7AA7EECF
:1044A000A70A0BF0E7F9F1EE007AB4EEE70AF1EEB5
:1044B00010FA9DBFF1EE027A77EEC07A9FED7A0A8C
:1044C000DFED7A7A336898BF67EE807AD90768EEB5
:1044D000277A58BFB2EE007AC8ED027A58BF67EE6D
:1044E000877AA9EB0A0358BFC8ED027A07EE903A23
:1044F0009FED6F7AF8EE677A67EE877AB0EE007A12
:10450000F4EEC77AF1EE10FA05D5B4EECACAF1EEB0
:1045100010FA00F10982D4ED207AB4F88430F0EE7C
:10452000EAAA7AEEA7AA0133C4ED20AAA4F884303F
:10453000604AD5ED01BAB2F90030D5ED006AD5ED8B
:1045400004AA5B4207EE903AB2F902305B4208EEF1
:10455000103AB8EEC88AB2F90430B8EEE77A68EEDD
:104560002BBA5B4207EE903AE6EE87BAF8EEE77AAE
:10457000D5ED026A68EE2AAAE6EEA7BAD5ED036A7F
:10458000C4ED1DBAE7EE26AAD5ED056AE7EEA6AAA8
:10459000D5ED076AC4ED1EAA28EE268AD5ED066A77
:1045A000A7EE268A95ED087AA7EE878AD4ED227ABF
:1045B00084ED1F8A3BEE27BADFED3F7A84ED22BA05
:1045C0006AEEA7AA6BEEA7BA6AEEAACA28EE278AF5
:1045D000B0EE6C0AABEEAB0AA8EE080A0BF04AF993
:1045E0008BEE80CAB0EE6C0AACEE0C0AA8EE080A9C
:1045F0000BF040F9CAEE80BA2BEEAB0AACEE0C0A17
:10460000A8EE080A0BF036F988EE000AB0EE4C8AE4
:10461000A0EE288AB0EE6B7A90EE687AD5ED037A38
:10462000D5ED006AD5ED04AA97ED010A68EE277A68
:1046300068EEEBBAE7EE267AECEE28BAD5ED066A1C
:10464000EBEEA67A68EE2AAAC4ED237AB0EE67CA2A
:10465000D5ED017AE7EE27AAD5ED077AEBEEA7AA0A
:10466000D5ED057AC4ED24AA28EE278A2CE000BFF8
:104670005C1000209C100020180000203C1000203E
:104680003015002000000000CDCC4C3DF3665F3FAC
:10469000C2B8B23E781000209A9949C09A99494010
:1046A00048100020FFFF7F7FCDCC4C3ECDCCCC3DD1
:1046B000BD378635E41E0020000080393010002010
:1046C0006010002058A00B41D5ED027AA7EE278A92
:1046D00020EE000A97ED007AD5ED087AA7EE070ADA
:1046E000ABEEA78AD7ED027A84ED258AA7EEA70A5A
:1046F0000BF0C0F8D5ED0A7AF4EEE97AF1EE10FA93
:10470000B4EEC90A48BFC5ED0A9AF1EE10FA00F1FD
:10471000DB805FED147AB4EEE70AF1EE10FA00F3F5
:10472000D68080EE097A864B95ED0A6A2CEE077AE0
:10473000B4EEC90A67EE066AF1EE10FAC3ED006A3C
:1047400000F1C880DFED7F7AB4EEE70AF1EE10FAEF
:1047500000F3C38080EE097A2AEE877AB4EEC90AA4
:1047600027EE067AF1EE10FA83ED017A00F1B880B7
:10477000DFED747AB4EEE70AF1EE10FA00F3B380DD
:10478000C0EE097A3268D20768EE277A67EE867A39
:10479000C3ED027A0DD4B2EE006A66EE866A27EEA9
:1047A000067A67EE867AC3ED006A83ED017AC3ED7F
:1047B000027AB4EECA0AF1EE10FA1FD59FED627AC2
:1047C000D4ED266A6CEE077A6AEE87AAEBEE276ACA
:1047D000D4ED277AC4ED266AEBEE2A7A28EE078A12
:1047E000C4ED277AD4ED287AEBEE087AC4ED287A66
:1047F000D4ED297A37EE8BBA84ED29BAD4ED297A33
:10480000B1EE047AF4EEC77AF1EE10FA4CDB94EDD7
:10481000197A94ED266A67EE877AB1EE677AB4EE7C
:10482000C76AF1EE10FA61D4F4EE467AF1EE10FAAE
:1048300048BFB0EE676AD4ED276AB4EEE67AF1EECF
:1048400010FA56DCF4EE667AF1EE10FA48BFF0EE9C
:10485000676AD4ED285AB4EEE57AF1EE10FA08DC76
:10486000F4EEE57AF1EE10FA54BFB0EE657AB0EEF0
:10487000677A364BC4ED268AD3ED007AC4ED278AD9
:1048800037EE866AD3ED017A83ED006A77EEA66A89
:10489000D3ED027AC3ED016A37EE877AC4ED288A38
:1048A00083ED027AC4ED298AC4ED228A03B0BDECFF
:1048B0000A8BBDE8F08FB0EE671A54E5F7EE007A88
:1048C000DFE5F2EE047ADCE5B7EE007A2BE7B2EE34
:1048D000047A28E7B7EE007A3EE7B2EE047A3BE7C7
:1048E000F7EE007A4EE7F2EE047A4BE7B0EE476A55
:1048F000A1E7F0EE476AACE7DBEEA8AA96E59FEDEC
:10490000147AD8ED007A67EE877AC8ED007AD8ED90
:10491000017A67EE877AC8ED017AD8ED027A67EE00
:10492000877AC8ED027A03E69FED0A7A6BEE87BAC2
:1049300094ED287AA7EEAB7A84ED287AEBE500BFF8
:104940002410002058A00B41728A0E3C1810002041
:10495000EC51783F0AD7233C10B52F4CD4ED013AE7
:1049600094ED046A94ED003A94ED037A94ED024AD2
:10497000D4ED056A63EE867AF6EE005AE3EE077A26
:104980008AB02146B0EE635AE4EE267A07A8F0EE2C
:10499000444A67EEA57AF0EE435AA6EE675AE6EE71
:1049A000E74AA3EEE76AE4EE676AE7EE675ACDED01
:1049B000066AA3EE677AF0EE667A66EE646A8DEDBB
:1049C000047AE5EE276A67EEE57ACDED075AE4EE64
:1049D000877A27EE457A8DED085AA5EE867ACDEDD9
:1049E000094A8DED056ACDED016ACDED027A8DEDB6
:1049F000037A01F0C1FC58B104F10C0104A801F0E4
:104A0000BBFC28B104F1180101A801F0B5FC08B9FC
:104A1000FEF7DAFF0AB010BD180000202DE9F04FB4
:104A20002DED028B85B0074603939C4B02911D88A8
:104A3000019215F0020512D0994BB3F90050B3F969
:104A40000230002DB8BF6D42002BB8BF5B429D42C3
:104A5000B8BF1D46B5F5007FA8BF4FF40075DFF85D
:104A600068B207F1010A00248D4B33F914208D4BF5
:104A700033F9141000294FF0040091FBF0F0B8BF97
:104A80004942B1F5206F4FEA44094FEA420200F370
:104A9000FB805BF82430111A0B44B3F57A5FA8BF92
:104AA0004FF47A5380498B42ACBF4BF824304BF81B
:104AB00024105BF824609AF80B307849F6115E43B5
:104AC00009889AF80030890702FB03F34FEA84084B
:104AD0004FEAA6160AF1010A4FEAA3133DD0019945
:104AE00049428A4203DB01999142A8BF11466F4AAD
:104AF000DFF8E4E139F90220891A039A32F9142027
:104B0000114458F80E2042F2107C0A446245A8BFB6
:104B10006246DFF8C8C16245B8BF624648F80E2059
:104B200097F808E001FB0EF197F81EE00EEB8E0EF1
:104B3000C911CEF1000C614503DB7145A8BF714678
:104B40008C46F97C4A431213B61AA3EB0C036E434E
:104B50006B4302EB66260CEB6323554A97F855101E
:104B6000125D12FB00F0A3EBA01308EE103A39B16E
:104B70005048B8EEC80A4044FFF70EFBBDEEC08AAD
:104B80004D49484B39F9010039F9032029F8012032
:104B90004FF0040E101A90FBFEF08E440C3158F8C2
:104BA0000E3058F8012048F801301A4497F8541094
:104BB00048F80E00024400EE102A39B13F48B8EE22
:104BC000C00A4044FFF7E8FABDEEC00A3C4B10EEC5
:104BD000102A1B5D18EE101A5A4313463144394A05
:104BE0000134A1EB6316022C29F802607FF43CAF7C
:104BF000029B99790F314B002949B1F904105943AF
:104C00004911284B00294FF00400B3F9043093FBFD
:104C1000F0F3A1EB0303B8BF494232292A4837DC3D
:104C20008468B97B03FB0141284CA142A8BF2146FF
:104C3000274CA142ACBF81608460F9784B43254981
:104C4000097803294FEAA3130ADDB7F85210B1F52A
:104C5000FA7F05DA4C42A3421DDB8B42A8BF0B460C
:104C6000816841F34F31B1F5807FA8BF4FF4807167
:104C70006FF0FF008142ACBF5B181B18938005B03A
:104C8000BDEC028BBDE8F08F00234BF8243010E719
:104C900000218160D1E72346E2E700BF081F002022
:104CA00078120020FC09002080C1FFFF1A0A0020B2
:104CB000B01200208412002054110020C8120020DD
:104CC000D4120020A212002090120020FEFFFF0F3D
:104CD000020000F0FE100020A8120020F0D8FFFF14
:104CE0002DE9F04F2DED028B85B000260393914BFB
:104CF0000292B3F90090B3F902300196B9F1000FB6
:104D0000B8BFC9F10009002BB8BF5B429945B8BFD5
:104D10009946B9F5FA7F8246A8BF4FF4FA7935462D
:104D2000B3463446844B1B8813F003014FEA440812
:104D30003FD0022C39D07F4A029832F908204542F0
:104D40005200AA4203DB9042A8BF104605467B4AA8
:104D500032F90820AD1A039A32F9142015449AF852
:104D6000082064206A4392FBF0F29AF81E006FF06C
:104D7000040B0BFB00FB5A4504DB00EB800B934557
:104D8000A8BF93466E4850F82420154442F2107292
:104D90009542A8BF15466B4A9542B8BF15469AF88A
:104DA000132040F8245055432D13012901D1022C22
:104DB00039D1604A32F90810634A019132F908206A
:104DC00082EAE270A0EBE270B0F5206F4FEA840057
:104DD00000F3A280022C00F098800AEB040601EB9D
:104DE00081017678090191FBF6F1584E042792FB78
:104DF000F7F28A1A31581144B1F57A5FA8BF4FF41F
:104E00007A51534A9142ACBF315032504F4A0AEB6B
:104E1000040152F824607D2296FBF2F20E7B564389
:104E2000402296FBF2F69A077AD5022C78D0019BA5
:104E3000C9F5FA7709FB03F209FB06F30BFB07221E
:104E40004FF4FA7105FB073792FBF1F297FBF1F78C
:104E50003D4B042133F9083093FBF1F13D4BE35C0A
:104E600013FB01F36FF04F0193FBF1F39AF8551028
:104E7000134408EE103A41B13748B8EEC80A00EBC7
:104E80008400FFF789F9BDEEC08A2F4B334A33F90E
:104E9000083032F9081022F8083002F1080E1432F6
:104EA0005EF824C0591A52F8243042F824C06344F2
:104EB000042091FBF0F10B444EF824109AF85410A2
:104EC000A00000EE103A39B1254AB8EEC00A1044ED
:104ED000FFF762F9BDEEC00A18EE103A214A3B44D2
:104EE000125D1F4610EE103A01345343202293FB0B
:104EF000F2F31D4AFB1A032C22F808307FF412AF9C
:104F000005B0BDEC028BBDE8F08F81EAE176A6EB3F
:104F1000E176642E7FF761AF0C4A0021115075E7EE
:104F2000DB0704D5022C02D02F465A4690E73746BD
:104F3000019A8DE778120020081F00201A0A00202D
:104F4000A8120020F0D8FFFFFC09002090120020DA
:104F500080C1FFFFB01200208412002068110020E1
:104F6000C8120020D4120020A21200202DE9F04F18
:104F70002DED088B85B0DFEDBA7A0393B94B029221
:104F80001B8809EE903AB84B1B88F8EE699A13F02B
:104F9000020F054669EEA79AF7EE00AA00F01C8101
:104FA000B248169BDE89B0F900309B1B03F2F31464
:104FB00040F2E6329442044698BF83EAE370B4F9C3
:104FC0000220A2EB060298BFA0EBE37002F2F314FA
:104FD00040F2E63388BF4FF4FA709C4200F2F98049
:104FE00082EAE273A3EBE2738342B8BF034695F80B
:104FF0005020002A00F0F380C3F5FA7307EE903AD0
:10500000DFED9B6AF8EEE77A642387EEA67A93FBDE
:10501000F2F307EE903A37EE6A7AF8EEE77AB0EEFE
:105020006A9AA7EE279AB5EEC09AF1EE10FA00F14F
:10503000D680B4EE6A9AF1EE10FAF7EE007AC8BFA5
:10504000B0EE679ADFF86CA2DFF86C920B1D01934B
:1050500005F1240B0AF10C080AF118070024019B42
:10506000022C13F801EB01934FEA4406F2EE04BA66
:1050700040F0B8807F4BDFED806AB3F904100EF189
:105080000A0E01FB0EF107EE901AB8EEE77AC7EEB2
:10509000267A7A498B5F7A4907EE103AD1ED196A80
:1050A000784B9FED79BAE35C95F85510B8EEC77A66
:1050B000E7EE667ABBEC017AB0EE678A07EE903ACB
:1050C00028EE077AF8EEE77A67EE877A87EE8BAA02
:1050D00041B16E4800EB8400B0EE4A0AFFF75CF87D
:1050E000B0EE40AA69EE887A9BED027AF9EC018A6B
:1050F00067EE877AE7EEAB8ADFED657AF4EEE78A52
:10510000F1EE10FA00F1A680DFED627AF4EE678A24
:10511000F1EE10FAC8BFF0EE678ADAED007A97ED8B
:10512000000A49ED018A38EE677ACAEEA97AAAEC3C
:10513000018A67EE877A98ED007AE8EC017AA7ECAD
:10514000017A37EE000A95F8541030EE270A21B1A3
:10515000514800EB8400FFF71FF8F0EE087A80EE6C
:10516000277A484B1B5DDBED057A67EE277A07EE61
:10517000103AB8EEC77A27EE877AC7EE0B7A9FED22
:10518000477AF4EEC77AF1EE10FA66D49FED447ACE
:10519000F4EE477AF1EE10FAC8BFF0EE477A3AEE35
:1051A000280A013430EE270A0AF098F93D49B0F593
:1051B0007A7FA8BF4FF47A708842B8BF08463A4950
:1051C000032C88537FF44BAF05B0BDEC088BBDE8D2
:1051D000F08F4FF4FA730AE7B0EE6A9A32E79FED68
:1051E000339A2FE7234B33F91400029B594288422C
:1051F00003DB8342A8BF034619462D4B33F906C093
:10520000039BA1EB0C0133F914C0614407EE901A23
:1052100015490988F8EEE77ACA07C7EEAB6A04D5E4
:10522000D5ED127A66EEA77A33E70EF1140E00FB85
:105230000EF007EE900A9FED106AB8EEE77A8B0742
:10524000C7EE067A42BF95ED137A66EE876AE9EEFD
:10525000267A1EE7F0EE678A5FE7F0EE477A9EE770
:10526000BD378635FC100020081F0020F00F0020FD
:105270000000FA437812002000004842FC09002098
:1052800054110020801200200000C8428412002027
:1052900000007AC300007A43C8120020000096C3C1
:1052A0000000964318FCFFFFA2120020000000003F
:1052B0001A0A002088110020E8120020054B002265
:1052C0001A605A609A60044B00221A605A609A6011
:1052D000704700BF90120020E8120020044B00220B
:1052E0001A605A60034B00221A605A60704700BF70
:1052F000A8120020F4120020034B1B881D2B02DC97
:10530000042005F00BB97047C81E0020114BD3EDE7
:10531000007A114BF5EE407AF1EE10FA4FF00002F0
:1053200003D19A66DA661A677047F0EE086A86EE6D
:10533000A77A83ED1C7A27EEA77A67EE877A86EE46
:10534000876AF7EE006A86EEA77A83ED1B6A83ED23
:105350001A7A704744000020541100202DE9F04FC4
:10536000CB4C676F2DED048BC71B42F20F739F422E
:1053700083B040F2E98044F620639F42DFF854B3E3
:10538000DFF854A3DFF85483C24E606781BF002367
:10539000CBF80830CAF80030C8F800303379ABB128
:1053A000BD4B1B7813F0040310D10022A2674FF409
:1053B000C862CBF80830CAF80030C8F80030337142
:1053C000A4F87C20C4F88030C4F88430B34BD3F800
:1053D0000090D4F8883001934B457CD0B04AD4ED8E
:1053E000247A92ED000AD4F88C50F8EEE77AB8EE01
:1053F000C07A87EE870A0AF0C1F9019BA9EB030383
:1054000007EE903A9FEDA77AF8EE677A67EE877A13
:10541000B6EE007AF4EEC77AF1EE10FA59DC05F533
:10542000D5433333642293FBF2F307EE903AF8EE60
:10543000E77AB4F9943027EE800ADFED9B7A20EE0C
:10544000270ADFED9A7A0A2B20EE270A10DC0022C9
:10545000C4F89C200133002284ED260A84ED280A3A
:10546000CBF80820CAF80020C8F80020A4F894302F
:10547000B4F9A4300F2B6CD1B4F9A63004EB83023D
:1054800001331BB20F2B08BF0023A4F8A630D2EDC6
:105490002A7A0E23A4F8A430854A94ED277AB2F92B
:1054A000001077EE877A81EAE17330EE670AA3EBAA
:1054B000E1731E2B84ED390A07DCB2F9022082EA7F
:1054C000E273A3EBE2731E2B46DD7A4B3360FFF7EA
:1054D0001DFFC4F88890DAF80030002B3FD0DBEDD8
:1054E000027AB8EEE77A07EE903AF8EEE77AC7EE7E
:1054F000276AC4ED3A6A704B94ED3A9AD3ED007A7C
:1055000084ED3B9A29EE277ADFED6C7AB4EEE77AE8
:10551000F1EE10FA27D4DFED6A7AB4EE677AF1EE95
:1055200010FAC8BFB0EE677AB4F9F03084ED3A7A79
:105530000025052BCBF80850CAF80050C8F80050D9
:1055400014DC0133A4F8F03003B0BDEC048BBDE8EB
:10555000F08FD4ED267A9FE74FF08043B6E7002323
:10556000C4F8E830C7E7B0EE677ADDE707EE907A77
:10557000DFED546AD4ED395A94ED1E0A94ED1C5AAD
:10558000D4ED278A94ED268A4F4FF8EE677A87EE9E
:10559000A66AD4ED1A6AD4ED3D7A65EEA66AE6EE07
:1055A000267AD4ED1B6AC4ED3D7A65EEA66A77EEE5
:1055B000877AA6EE260A65EE855AF0EE406A27EE57
:1055C000860AB0EE667AF6EE007AA0EE277AE6EE6C
:1055D000258AA6EE078A36EE800AC4ED278A78EE81
:1055E000888A84ED1E0A84ED268AC4ED288A09F093
:1055F00075FFB0EE680A386009F070FF334AF3882F
:105600001060B4F9A40001330E281BB239461FDC28
:105610000E2BD4BFF380F580B6F90630013004EBD1
:10562000830383ED2A8AA4F8A4002948D1F80090C6
:10563000038803F21F339BB240F23E618B4205D8D0
:10564000438803F21F339BB28B4249D90023BFE04A
:105650000F2BF38008D1B4F8A630F58084ED2A8AA8
:105660000133A4F8A630E0E704EB830383ED2A8A34
:10567000B4F8A63001331BB20F2BF2D1A4F8A65018
:10568000D3E7D4F8FC005BE0C4F8807073E000BF9F
:105690005411002044000020101F0020541B002043
:1056A000341B00206F12833A8E2BEA410000C8425F
:1056B0001A0A00200000A040FC140020000048C48A
:1056C000000048440024744934150020240A0020B6
:1056D000401500209414002078150020B0140020FC
:1056E000454B94ED408A1F7817F0040702D11368E8
:1056F000C4F8F830337ADFF81881002BC1D1106874
:10570000D4F8F8301B1AB3F5FA7F3C48A8BF4FF421
:10571000FA739842B8BF1846052104F024FED8F861
:1057200000301B795843802390FBF3F0B0F5967F4F
:10573000A3F5D673A8BF4FF496709842B8BF184629
:10574000D8F800108B7AA0EB09004343202293FB8A
:10575000F2F22B4BB2F5967FA8BF4FF496729A42A5
:10576000B8BF1A46002F8FD0D4F880704B7D00FB55
:105770000370C4F88000D4F8803022489FED227A6C
:10578000B3F5161FA8BF4FF416138342B8BF0346E4
:10579000C4F880304FF4005093FBF0F3134491F8B9
:1057A000202007EE902A39EE088AF8EEE77A6FF0AB
:1057B000950167EE887A67EE877AFDEEE77A17EE55
:1057C000902A962AA8BF96228A42ACBF9B1A5B1ADF
:1057D00005214846C4F8843084ED409A89EAE97589
:1057E00004F0C1FDA5EBE975084BC82D18607FF7E3
:1057F000ABAE01233371A7E6101F00200CFEFFFFA4
:10580000D4FEFFFF0080DAFF0000003B280A0020E2
:10581000101B00202DE9F04F87B0804603939B4B6F
:105820001B88980740F1FA80994C109BDE89B4F9E7
:1058300000309B1B03F2F31540F2E630854225460B
:1058400098BF83EAE374B5F90200A0EB060098BFA5
:10585000A4EBE37400F2F31540F2E63388BF4FF493
:10586000FA749D4200F2D78080EAE073A3EBE07304
:10587000A342B8BF23460520C3F5FA7393FBF0F3A8
:105880000A20643B584398F81E30DB1043436420E1
:1058900093FBF0F3034423EAE3735BB27D4D7E4C4C
:1058A0006868019323689FED7D7A1B1A07EE903A92
:1058B000F8EE677A23686B6067EE877A0B1DC5ED9B
:1058C000007A029305F10809002405F1140A029BED
:1058D000022C13F8010B02934FEA440740F0A0801A
:1058E00000F11401B5F9240048434011E8616C4906
:1058F00008EB040BCE5F042196FBF1F15AF824600B
:10590000761A9BF8011006FB01F06649615C414381
:10591000642091FBF0F1C91100EE101A98F85510AF
:10592000A30059B1604805921844B8EEC00A049328
:10593000FEF732FC059A049BBDEEC00A5B4959484C
:10594000B1F800E09BF80C1010F804C0D5ED007A17
:1059500006FB0EF6F612714300F110060CFB01F186
:105960004FF0640E91FBFEFE99597144B1F5001F92
:10597000DFF84CE1A8BF4FF400117145F5EEC07A95
:10598000B8BF7146F1EE10FA99514FEA613118DD56
:10599000434BD9ED006ADB5F1C30B1EE087AC05F83
:1059A0001B1A07EE903AF8EEE77AB2EE046A77EE49
:1059B000E67A67EE877A87EE867A77EE267AC9ED01
:1059C000007A37483A4BC05BD8539BF81700F9EC84
:1059D000017ADFED386A07EE100AB8EEC77A0633AF
:1059E00027EE277A07EE90CAF8EEE77A013467EEE1
:1059F000277A032C87EEA67ABDEEC77A17EE100A37
:105A0000A1EBA01110EE100A0144D9537FF45FAF4F
:105A100007B0BDE8F08F4FF4FA732CE764233DE73D
:105A2000254B33F9141053424E009E4203DB96423D
:105A30003346A8BF1346214EF65F9B1B039E36F9E3
:105A400014603344114E368816F0010F4FEA840E6D
:105A500014D1143048430011B1074AF824007FF5EF
:105A600046AF98F813104B4301994B43642193FBC5
:105A7000F1F300EB23104AF80E0038E798F808100D
:105A80004B431B114AF8243031E700BF081F0020A8
:105A9000F00F002058120020501B00206F12833A94
:105AA000FC0900208012002084120020FC1000203D
:105AB0009C1200200000C842781200201A0A002020
:105AC0000000E0FF2DE9F04F2DED028B87B000259F
:105AD0000493B44B0292B3F92080B3F922200391CE
:105AE000B8F1000FB8BFC8F10008002AB8BF524291
:105AF0009045B8BF9046B8F5FA7F03F138030646E3
:105B0000A8BF4FF4FA78AB460095A9462C460193FE
